{
  "contractName": "voteApp",
  "abi": [
    {
      "constant": false,
      "inputs": [
        {
          "internalType": "string",
          "name": "_statement",
          "type": "string"
        }
      ],
      "name": "add",
      "outputs": [],
      "payable": false,
      "stateMutability": "nonpayable",
      "type": "function"
    },
    {
      "constant": false,
      "inputs": [
        {
          "internalType": "uint256",
          "name": "_id",
          "type": "uint256"
        }
      ],
      "name": "upvote",
      "outputs": [],
      "payable": false,
      "stateMutability": "nonpayable",
      "type": "function"
    },
    {
      "constant": false,
      "inputs": [
        {
          "internalType": "uint256",
          "name": "_id",
          "type": "uint256"
        }
      ],
      "name": "downvote",
      "outputs": [],
      "payable": false,
      "stateMutability": "nonpayable",
      "type": "function"
    },
    {
      "constant": true,
      "inputs": [
        {
          "internalType": "uint256",
          "name": "_id",
          "type": "uint256"
        }
      ],
      "name": "getProposals",
      "outputs": [
        {
          "internalType": "string",
          "name": "_stmt",
          "type": "string"
        },
        {
          "internalType": "uint256",
          "name": "_upvotes",
          "type": "uint256"
        },
        {
          "internalType": "uint256",
          "name": "_downvotes",
          "type": "uint256"
        }
      ],
      "payable": false,
      "stateMutability": "view",
      "type": "function"
    },
    {
      "constant": true,
      "inputs": [],
      "name": "getCount",
      "outputs": [
        {
          "internalType": "uint256",
          "name": "_count",
          "type": "uint256"
        }
      ],
      "payable": false,
      "stateMutability": "view",
      "type": "function"
    }
  ],
  "bytecode": "0x608060405234801561001057600080fd5b506106e7806100206000396000f3fe608060405234801561001057600080fd5b50600436106100575760003560e01c806301ddf0701461005c5780632c72fdfc1461008a578063a87d942c1461013f578063b0c8f9dc1461015d578063f31fdad414610218575b600080fd5b6100886004803603602081101561007257600080fd5b8101908080359060200190929190505050610246565b005b6100b6600480360360208110156100a057600080fd5b810190808035906020019092919050505061038e565b6040518080602001848152602001838152602001828103825285818151815260200191508051906020019080838360005b838110156101025780820151818401526020810190506100e7565b50505050905090810190601f16801561012f5780820380516001836020036101000a031916815260200191505b5094505050505060405180910390f35b61014761047a565b6040518082815260200191505060405180910390f35b6102166004803603602081101561017357600080fd5b810190808035906020019064010000000081111561019057600080fd5b8201836020820111156101a257600080fd5b803590602001918460018302840111640100000000831117156101c457600080fd5b91908080601f016020809104026020016040519081016040528093929190818152602001838380828437600081840152601f19601f820116905080830192505050505050509192919290505050610484565b005b6102446004803603602081101561022e57600080fd5b81019080803590602001909291905050506104c5565b005b600080600083815260200190815260200160002060030160003373ffffffffffffffffffffffffffffffffffffffff1673ffffffffffffffffffffffffffffffffffffffff168152602001908152602001600020541461030e576040517f08c379a000000000000000000000000000000000000000000000000000000000815260040180806020018281038252600d8152602001807f416c726561647920566f7465640000000000000000000000000000000000000081525060200191505060405180910390fd5b60008082815260200190815260200160002060010160008154809291906001019190505550600160008083815260200190815260200160002060030160003373ffffffffffffffffffffffffffffffffffffffff1673ffffffffffffffffffffffffffffffffffffffff1681526020019081526020016000208190555050565b60606000806000808581526020019081526020016000206000018054600181600116156101000203166002900480601f01602080910402602001604051908101604052809291908181526020018280546001816001161561010002031660029004801561043c5780601f106104115761010080835404028352916020019161043c565b820191906000526020600020905b81548152906001019060200180831161041f57829003601f168201915b505050505092506000808581526020019081526020016000206001015491506000808581526020019081526020016000206002015490509193909250565b6000600154905090565b80600080600154815260200190815260200160002060000190805190602001906104af92919061060d565b5060016000815480929190600101919050555050565b600080600083815260200190815260200160002060030160003373ffffffffffffffffffffffffffffffffffffffff1673ffffffffffffffffffffffffffffffffffffffff168152602001908152602001600020541461058d576040517f08c379a000000000000000000000000000000000000000000000000000000000815260040180806020018281038252600d8152602001807f416c726561647920566f7465640000000000000000000000000000000000000081525060200191505060405180910390fd5b60008082815260200190815260200160002060020160008154809291906001019190505550600260008083815260200190815260200160002060030160003373ffffffffffffffffffffffffffffffffffffffff1673ffffffffffffffffffffffffffffffffffffffff1681526020019081526020016000208190555050565b828054600181600116156101000203166002900490600052602060002090601f016020900481019282601f1061064e57805160ff191683800117855561067c565b8280016001018555821561067c579182015b8281111561067b578251825591602001919060010190610660565b5b509050610689919061068d565b5090565b6106af91905b808211156106ab576000816000905550600101610693565b5090565b9056fea265627a7a72315820ad6341c941654d20f015139c1f81f34ab986ac0fbb471914fde09a5338cb5ff964736f6c634300050c0032",
  "source": "pragma solidity >=0.4.22 <0.6.0;\n\ncontract voteApp{\n    struct Proposal{\n        string  statement;\n        uint upvotes;\n        uint downvotes;\n        mapping(address=>uint) voteCheck; // 0==not voted ; 1== upvtoe ; 2== downvote\n    }\n    mapping(uint=>Proposal) internal proposal;\n    uint proposal_id;\n    function add(string memory _statement) public {\n      proposal[proposal_id].statement = _statement;\n      proposal_id++;\n    }\n    function upvote(uint _id) public {\n        require(proposal[_id].voteCheck[msg.sender] == 0,\"Already Voted\");\n        proposal[_id].upvotes++;\n        proposal[_id].voteCheck[msg.sender] = 1;\n        \n    }\n    function downvote(uint _id)public {\n        require(proposal[_id].voteCheck[msg.sender] == 0,\"Already Voted\");\n        proposal[_id].downvotes++;\n        proposal[_id].voteCheck[msg.sender] = 2;\n        \n    }\n    function getProposals(uint _id) public view returns(string memory _stmt, uint _upvotes, uint _downvotes ){\n        _stmt = proposal[_id].statement;\n        _upvotes = proposal[_id].upvotes;\n        _downvotes = proposal[_id].downvotes;\n    } \n    function getCount() public view returns(uint _count){\n        _count = proposal_id;\n    }\n}",
  "sourcePath": "/media/abhimanyu/New Volume/truffle_dart/contracts/voteApp.sol",
  "compiler": {
    "name": "solc",
    "version": "0.5.12+commit.7709ece9.Emscripten.clang"
  },
  "schemaVersion": "3.0.19",
  "updatedAt": "2019-11-26T17:42:01.728Z",
  "networkType": "ethereum",
  "devdoc": {
    "methods": {}
  },
  "userdoc": {
    "methods": {}
  }
}